:0A0C6000000102020303040405056D
:10059A00E4F513F512F511F510F51BF51AF519F531
:1005AA0018C203C200C202C2011208B87E017F004B
:1005BA008E238F24752B01752C1275210175221C2F
:1005CA00752901752A3C752D01752E5C90E680E02F
:1005DA0030E70E852125852226852927852A288028
:1005EA000C852925852A26852127852228EE54E08F
:1005FA0070030207157514007515807E017F008E41
:10060A00168F17C374EC9FFF74019ECF2402CF3458
:10061A0000FEE48F0F8E0EF50DF50CF50BF50AF5BD
:10062A0009F508AF0FAE0EAD0DAC0CAB0BAA0AA9BB
:10063A0009A808C3120C4F502AE515250BF582E5C7
:10064A0014350AF58374CDF0E4FAF9F8E50B2401C0
:10065A00F50BEA350AF50AE93509F509E83508F529
:10066A000880C0E4F50BF50AF509F508AF0FAE0EE0
:10067A00AD0DAC0CAB0BAA0AA909A808C3120C4F02
:10068A005037E517250BF582E516350AF583E0FFA5
:10069A00E515250BF582E514350AF583EFF0E4FA42
:1006AA00F9F8E50B2401F50BEA350AF50AE93509EB
:1006BA00F509E83508F50880B385142385152474EF
:1006CA00002480FF740134FFFEC3E52C9FF52CE55E
:1006DA002B9EF52BC3E5269FF526E5259EF525C31A
:1006EA00E5289FF528E5279EF527C3E5229FF522F1
:1006FA00E5219EF521C3E52A9FF52AE5299EF529DC
:10070A00C3E52E9FF52EE52D9EF52DD2E843D82080
:10071A0090E668E04409F090E65CE0443DF0D2AF30
:10072A0090E680E020E105D205120AF790E680E023
:10073A0054F7F0538EF8C203300105120300C201C8
:10074A00300329120C725024C203120B7D200016AA
:10075A0090E682E030E704E020E1EF90E682E030C4
:10076A00E604E020E0E4120B26120C74120BA280BD
:01077A00C7B7
:01077B00225B
:1003000090E6B9E070030203DC1470030204852454
:10031000FE700302051A24FB70030203D614700357
:100320000203D01470030203C41470030203CA242E
:10033000056003020586120C76400302059290E6E2
:10034000BBE024FE602C14604724FD60161460316D
:1003500024067066E52390E6B3F0E52490E6B4F059
:10036000020592E52B90E6B3F0E52C90E6B4F0029E
:100370000592E52590E6B3F0E52690E6B4F0020597
:1003800092E52790E6B3F0E52890E6B4F0020592F6
:1003900090E6BAE0FF120B52AA06A9077B01EA49D0
:1003A0004B600DEE90E6B3F0EF90E6B4F0020592EC
:1003B00090E6A0E04401F002059290E6A0E044013E
:1003C000F0020592120C3D020592120C6A0205928F
:1003D00012077C020592120C2B020592120C784037
:1003E0000302059290E6B8E0247F602B14603C2461
:1003F00002600302047BA200E433FF25E0FFA202B7
:10040000E4334F90E740F0E4A3F090E68AF090E602
:100410008B7402F0020592E490E740F0A3F090E6BE
:100420008AF090E68B7402F002059290E6BCE054EC
:100430007EFF7E00E0D3948040067C007D01800436
:100440007C007D00EC4EFEED4F2460F582740C3E86
:10045000F583E493FF3395E0FEEF24A1FFEE34E64D
:100460008F82F583E0540190E740F0E4A3F090E63A
:100470008AF090E68B7402F002059290E6A0E044C8
:1004800001F0020592120C7A400302059290E6B840
:10049000E024FE601D2402600302059290E6BAE0AB
:1004A000B40105C20002059290E6A0E04401F0020A
:1004B000059290E6BAE0705990E6BCE0547EFF7E6B
:1004C00000E0D3948040067C007D0180047C007DA8
:1004D00000EC4EFEED4F2460F582740C3EF583E493
:1004E00093FF3395E0FEEF24A1FFEE34E68F82F513
:1004F00083E054FEF090E6BCE05480FF13131354E5
:100500001FFFE0540F2F90E683F0E04420F0020537
:100510009290E6A0E04401F08078120C7C50739039
:10052000E6B8E024FE60202402706790E6BAE0B4EA
:100530000104D200805C90E6BAE06402605490E668
:10054000A0E04401F0804B90E6BCE0547EFF7E00CA
:10055000E0D3948040067C007D0180047C007D0017
:10056000EC4EFEED4F2460F582740C3EF583E4936F
:10057000FF3395E0FEEF24A1FFEE34E68F82F58392
:10058000E04401F0800C120C7E500790E6A0E0449D
:0905900001F090E6A0E04480F0C7
:01059900223F
:030033000207FCC5
:0407FC0053D8EF32AD
:100100001201000200000040B404F10000000102EE
:1001100000010A0600020000004001000902200060
:10012000010100A0320904000002FF0000000705E1
:1001300002020002000705860200020009022000F8
:10014000010100A0320904000002FF0000000705C1
:10015000040240000007058802400000040309046F
:100160001003430079007000720065007300730093
:100170007C0358005A002D00550053004200200017
:100180004600580032002000470050004900460059
:10019000200074006F0020004500780074002000EB
:1001A0004600490046004F002000450078006100ED
:1001B0006D0070006C006500200075007300690020
:1001C0006E0067002000530069006E0067006C003D
:1001D000650020005400720061006E007300610031
:0E01E0006300740069006F006E007300000081
:100C1700421A030000411A0200C104411A000041B0
:030C27001A0100AF
:1008B80090E6007412F090E6027408F000000090D0
:1008C800E60374E0F000000090E670E04480F00079
:1008D800000090E60174E3F000000090E61274A0B6
:1008E800F000000090E61474E0F000000090E613B9
:1008F8007402F000000090E615F00000000000000F
:1009080090E6047480F00000007402F000000074A7
:1009180004F00000007406F00000007408F0000005
:1009280000E4F000000090E618F00000007411F0F8
:1009380000000090E61A740DF000000043B20200B7
:10094800000043800200000043B4010000000000E2
:080958000053B4FD0000002271
:100BA200E5A020E102D204300410E5A030E10B0000
:0B0BB200000043A001000000C204226C
:020C7200D3228B
:020C7400D32289
:020C7600D32287
:10077C0090E680E030E71E90E6247402F000000062
:10078C0090E626F0000000E490E625F000000090D2
:10079C00E627F0801CE490E624F000000090E626AA
:1007AC00F000000090E6257440F000000090E62771
:0907BC00F090E6BAE0F51FD3222B
:100C2B0090E740E51FF0E490E68AF090E68B04F045
:020C3B00D322C2
:080C6A0090E6BAE0F51ED3226A
:100C3D0090E740E51EF0E490E68AF090E68B04F034
:020C4D00D322B0
:020C7800D32285
:020C7A00D32283
:020C7C00D32281
:020C7E00D3227F
:100BBD00C0E0C083C082D2015391EF90E65D740115
:080BCD00F0D082D083D0E032A9
:100BD500C0E0C083C0825391EF90E65D7404F0D00D
:060BE50082D083D0E03253
:100BEB00C0E0C083C0825391EF90E65D7402F0D0F9
:060BFB0082D083D0E0323D
:1007C500C0E0C083C08290E680E030E70E85212539
:1007D500852226852927852A28800C852925852A8D
:1007E500268521278522285391EF90E65D7410F028
:0707F500D082D083D0E03276
:100C0100C0E0C083C0825391EF90E65D7408F0D0DC
:060C110082D083D0E03226
:100AC000C0E0C083C08290E680E030E70E8521253B
:100AD000852226852927852A28800C852925852A8F
:100AE000268521278522285391EF90E65D7420F01A
:070AF000D082D083D0E03278
:010C80003241
:010C81003240
:010C8200323F
:010C8300323E
:010C8400323D
:010C8500323C
:010C8600323B
:010C8700323A
:010C88003239
:010C89003238
:010C8A003237
:010C8B003236
:010C8C003235
:010C8D003234
:010C8E003233
:010C8F003232
:010C90003231
:010C91003230
:010C9200322F
:010C9300322E
:010C9400322D
:010C9500322C
:010C9600322B
:010C9700322A
:010C98003229
:010C99003228
:010C9A003227
:010C9B003226
:010C9C003225
:010C9D003224
:010C9E003223
:010C9F003222
:010CA0003221
:010CA1003220
:010CA200321F
:010CA300321E
:1009EC00AD07ED30E00D908100E0901A00F0A3E02F
:1009FC0054FEF0ED30E10D909100E0901A00F0A360
:100A0C00E054FDF0ED30E20D90A100E0901A00F002
:100A1C00A3E054FBF0ED30E30D90B100E0901A0030
:070A2C00F0A3E054F7F022F3
:100A3300AD07ED30E00D908000E0901A00F0A3E0E8
:100A43004401F0ED30E10D909000E0901A00F0A326
:100A5300E04402F0ED30E20D90A000E0901A00F0C7
:100A6300A3E04404F0ED30E30D90B000E0901A00F1
:070A7300F0A3E04408F022AB
:100B260090E682E030E004E020E60B90E682E030DA
:100B3600E119E030E71590E680E04401F07F147E8D
:0C0B460000120A7A90E680E054FEF022D3
:100AF70030050990E680E0440AF0800790E680E040
:100B07004408F07FDC7E05120A7A90E65D74FFF0F8
:0F0B170090E65FF05391EF90E680E054F7F02204
:020B5200A907F1
:100B5400AE2DAF2E8F828E83A3E064037017AD0198
:100B640019ED7001228F828E83E07C002FFDEC3E14
:080B7400FEAF0580DFE4FEFF87
:010B7C002256
:100B7D0090E682E044C0F090E681F04387010000EA
:040B8D000000002242
:100A7A008E1C8F1D90E600E054187012E51D2401AB
:100A8A00FFE4351CC313F51CEF13F51D801590E622
:100A9A0000E05418FFBF100BE51D25E0F51DE51C0D
:100AAA0033F51CE51D151DAE1C7002151C4E6005A4
:060ABA00120B9180EE22F8
:100B91007400F58690FDA57C05A3E582458370F977
:010BA1002231
:03004300020800B0
:03005300020800A0
:10080000020BBD00020BEB00020BD500020C010035
:100810000207C500020AC000020C8000020C810021
:10082000020C8200020C8300020C8400020C850082
:10083000020C8600020C8700020C8800020C890062
:10084000020C8A00020C8100020C8B00020C8C004E
:10085000020C8D00020C8E00020C8F00020C900026
:10086000020C9100020C8100020C8100020C81003C
:10087000020C9200020C9300020C9400020C9500F2
:10088000020C9600020C9700020C9800020C9900D2
:10089000020C9A00020C9B00020C9C00020C9D00B2
:1008A000020C9E00020C9F00020CA000020CA10092
:0808B000020CA200020CA300DF
:0300000002096092
:0C096000787FE4F6D8FD75812E0209A70F
:100C4F00EB9FF5F0EA9E42F0E99D42F0E89C45F0FB
:010C5F002272
:10096C0002059AE493A3F8E493A34003F68001F202
:10097C0008DFF48029E493A3F85407240CC8C3338C
:10098C00C4540F4420C8834004F456800146F6DF5B
:10099C00E4800B0102040810204080900C17E47EC8
:1009AC00019360BCA3FF543F30E509541FFEE49350
:1009BC00A360010ECF54C025E060A840B8E493A317
:1009CC00FAE493A3F8E493A3C8C582C8CAC583CA42
:1009DC00F0A3C8C582C8CAC583CADFE9DEE780BEFA
:010C2A0000C9
:00000001FF
